{
  "contractName": "Lottery",
  "abi": [
    {
      "inputs": [],
      "stateMutability": "nonpayable",
      "type": "constructor"
    },
    {
      "inputs": [],
      "name": "manager",
      "outputs": [
        {
          "internalType": "address",
          "name": "",
          "type": "address"
        }
      ],
      "stateMutability": "view",
      "type": "function",
      "constant": true
    },
    {
      "inputs": [
        {
          "internalType": "uint256",
          "name": "",
          "type": "uint256"
        }
      ],
      "name": "players",
      "outputs": [
        {
          "internalType": "address",
          "name": "",
          "type": "address"
        }
      ],
      "stateMutability": "view",
      "type": "function",
      "constant": true
    },
    {
      "inputs": [],
      "name": "enter",
      "outputs": [],
      "stateMutability": "payable",
      "type": "function",
      "payable": true
    },
    {
      "inputs": [],
      "name": "random",
      "outputs": [
        {
          "internalType": "uint256",
          "name": "",
          "type": "uint256"
        }
      ],
      "stateMutability": "view",
      "type": "function",
      "constant": true
    },
    {
      "inputs": [],
      "name": "pickWinner",
      "outputs": [],
      "stateMutability": "nonpayable",
      "type": "function"
    },
    {
      "inputs": [],
      "name": "getPlayers",
      "outputs": [
        {
          "internalType": "address[]",
          "name": "",
          "type": "address[]"
        }
      ],
      "stateMutability": "view",
      "type": "function",
      "constant": true
    }
  ],
  "bytecode": "0x608060405234801561001057600080fd5b50336000806101000a81548173ffffffffffffffffffffffffffffffffffffffff021916908373ffffffffffffffffffffffffffffffffffffffff160217905550610a7c806100606000396000f3fe6080604052600436106100555760003560e01c8063481c6a751461005a5780635d495aea146100855780635ec01e4d1461009c5780638b5b9ccc146100c7578063e97dcb62146100f2578063f71d96cb146100fc575b600080fd5b34801561006657600080fd5b5061006f610139565b60405161007c919061059a565b60405180910390f35b34801561009157600080fd5b5061009a61015d565b005b3480156100a857600080fd5b506100b1610337565b6040516100be91906105ce565b60405180910390f35b3480156100d357600080fd5b506100dc61036d565b6040516100e991906106a7565b60405180910390f35b6100fa6103fb565b005b34801561010857600080fd5b50610123600480360381019061011e91906106fa565b610473565b604051610130919061059a565b60405180910390f35b60008054906101000a900473ffffffffffffffffffffffffffffffffffffffff1681565b3373ffffffffffffffffffffffffffffffffffffffff1660008054906101000a900473ffffffffffffffffffffffffffffffffffffffff1673ffffffffffffffffffffffffffffffffffffffff16146101eb576040517f08c379a00000000000000000000000000000000000000000000000000000000081526004016101e290610784565b60405180910390fd5b600060018054905011610233576040517f08c379a000000000000000000000000000000000000000000000000000000000815260040161022a906107f0565b60405180910390fd5b6000600180549050610243610337565b61024d919061083f565b90506001818154811061026357610262610870565b5b9060005260206000200160009054906101000a900473ffffffffffffffffffffffffffffffffffffffff1673ffffffffffffffffffffffffffffffffffffffff166108fc479081150290604051600060405180830381858888f193505050501580156102d3573d6000803e3d6000fd5b50600067ffffffffffffffff8111156102ef576102ee61089f565b5b60405190808252806020026020018201604052801561031d5781602001602082028036833780820191505090505b50600190805190602001906103339291906104b2565b5050565b60004442600160405160200161034f93929190610a0d565b6040516020818303038152906040528051906020012060001c905090565b606060018054806020026020016040519081016040528092919081815260200182805480156103f157602002820191906000526020600020905b8160009054906101000a900473ffffffffffffffffffffffffffffffffffffffff1673ffffffffffffffffffffffffffffffffffffffff16815260200190600101908083116103a7575b5050505050905090565b662386f26fc10000341161040e57600080fd5b6001339080600181540180825580915050600190039060005260206000200160009091909190916101000a81548173ffffffffffffffffffffffffffffffffffffffff021916908373ffffffffffffffffffffffffffffffffffffffff160217905550565b6001818154811061048357600080fd5b906000526020600020016000915054906101000a900473ffffffffffffffffffffffffffffffffffffffff1681565b82805482825590600052602060002090810192821561052b579160200282015b8281111561052a5782518260006101000a81548173ffffffffffffffffffffffffffffffffffffffff021916908373ffffffffffffffffffffffffffffffffffffffff160217905550916020019190600101906104d2565b5b509050610538919061053c565b5090565b5b8082111561055557600081600090555060010161053d565b5090565b600073ffffffffffffffffffffffffffffffffffffffff82169050919050565b600061058482610559565b9050919050565b61059481610579565b82525050565b60006020820190506105af600083018461058b565b92915050565b6000819050919050565b6105c8816105b5565b82525050565b60006020820190506105e360008301846105bf565b92915050565b600081519050919050565b600082825260208201905092915050565b6000819050602082019050919050565b61061e81610579565b82525050565b60006106308383610615565b60208301905092915050565b6000602082019050919050565b6000610654826105e9565b61065e81856105f4565b935061066983610605565b8060005b8381101561069a5781516106818882610624565b975061068c8361063c565b92505060018101905061066d565b5085935050505092915050565b600060208201905081810360008301526106c18184610649565b905092915050565b600080fd5b6106d7816105b5565b81146106e257600080fd5b50565b6000813590506106f4816106ce565b92915050565b6000602082840312156107105761070f6106c9565b5b600061071e848285016106e5565b91505092915050565b600082825260208201905092915050565b7f796f7520617265206e6f742061206d616e616765720000000000000000000000600082015250565b600061076e601583610727565b915061077982610738565b602082019050919050565b6000602082019050818103600083015261079d81610761565b9050919050565b7f746865726520617265206e6f20706c6179657273000000000000000000000000600082015250565b60006107da601483610727565b91506107e5826107a4565b602082019050919050565b60006020820190508181036000830152610809816107cd565b9050919050565b7f4e487b7100000000000000000000000000000000000000000000000000000000600052601260045260246000fd5b600061084a826105b5565b9150610855836105b5565b92508261086557610864610810565b5b828206905092915050565b7f4e487b7100000000000000000000000000000000000000000000000000000000600052603260045260246000fd5b7f4e487b7100000000000000000000000000000000000000000000000000000000600052604160045260246000fd5b6000819050919050565b6108e96108e4826105b5565b6108ce565b82525050565b600081549050919050565b600081905092915050565b60008190508160005260206000209050919050565b61092381610579565b82525050565b6000610935838361091a565b60208301905092915050565b60008160001c9050919050565b600073ffffffffffffffffffffffffffffffffffffffff82169050919050565b600061098161097c83610941565b61094e565b9050919050565b6000610994825461096e565b9050919050565b6000600182019050919050565b60006109b3826108ef565b6109bd81856108fa565b93506109c883610905565b8060005b83811015610a00576109dd82610988565b6109e78882610929565b97506109f28361099b565b9250506001810190506109cc565b5085935050505092915050565b6000610a1982866108d8565b602082019150610a2982856108d8565b602082019150610a3982846109a8565b915081905094935050505056fea26469706673582212204e2ce76bd7cec6edd1326aeed35e035342311cb6d18f27190daf859ae1e0ec4364736f6c63430008100033",
  "immutableReferences": {},
  "source": "// SPDX-License-Identifier: MIT\r\npragma solidity >=0.4.22 <0.9.0;\r\n\r\ncontract Lottery {\r\n    address public manager;\r\n    address[] public players;\r\n\r\n    constructor() {\r\n        manager = msg.sender;\r\n    }\r\n\r\n    modifier restricted() {\r\n        require(manager == msg.sender, 'you are not a manager');\r\n        _;\r\n    }\r\n\r\n    function enter() public payable {\r\n        require(msg.value > 0.01 ether);\r\n        players.push(msg.sender);\r\n    }\r\n\r\n    function random() public view returns (uint ) {\r\n        return uint(keccak256(abi.encodePacked(block.difficulty, block.timestamp, players)));\r\n    }\r\n\r\n    function pickWinner() public restricted {\r\n        require(players.length > 0, 'there are no players');\r\n        uint index = random() % players.length;\r\n        payable(players[index]).transfer(address(this).balance);\r\n        players = new address[](0);\r\n    }\r\n    function getPlayers() public view returns(address[] memory) {\r\n        return players;\r\n    }\r\n}",
  "sourcePath": "D:\\mub\\selfImprovement\\Blockchain\\2_Etherium and solidity\\Lottery-react\\src\\contracts\\Lottery.sol",
  "compiler": {
    "name": "solc",
    "version": "0.8.16+commit.07a7930e.Emscripten.clang"
  },
  "schemaVersion": "3.4.7",
  "updatedAt": "2022-08-12T17:14:09.287Z",
  "networkType": "ethereum",
  "devdoc": {
    "kind": "dev",
    "methods": {},
    "version": 1
  },
  "userdoc": {
    "kind": "user",
    "methods": {},
    "version": 1
  }
}