{
  "contractName": "Lottery",
  "abi": [
    {
      "inputs": [],
      "stateMutability": "nonpayable",
      "type": "constructor"
    },
    {
      "inputs": [],
      "name": "manager",
      "outputs": [
        {
          "internalType": "address",
          "name": "",
          "type": "address"
        }
      ],
      "stateMutability": "view",
      "type": "function"
    },
    {
      "inputs": [
        {
          "internalType": "uint256",
          "name": "",
          "type": "uint256"
        }
      ],
      "name": "players",
      "outputs": [
        {
          "internalType": "address",
          "name": "",
          "type": "address"
        }
      ],
      "stateMutability": "view",
      "type": "function"
    },
    {
      "inputs": [],
      "name": "enter",
      "outputs": [],
      "stateMutability": "payable",
      "type": "function"
    },
    {
      "inputs": [],
      "name": "random",
      "outputs": [
        {
          "internalType": "uint256",
          "name": "",
          "type": "uint256"
        }
      ],
      "stateMutability": "view",
      "type": "function"
    },
    {
      "inputs": [],
      "name": "pickWinner",
      "outputs": [],
      "stateMutability": "nonpayable",
      "type": "function"
    }
  ],
  "bytecode": "0x608060405234801561001057600080fd5b50336000806101000a81548173ffffffffffffffffffffffffffffffffffffffff021916908373ffffffffffffffffffffffffffffffffffffffff1602179055506107a2806100606000396000f3fe60806040526004361061004a5760003560e01c8063481c6a751461004f5780635d495aea1461007a5780635ec01e4d14610091578063e97dcb62146100bc578063f71d96cb146100c6575b600080fd5b34801561005b57600080fd5b50610064610103565b60405161007191906103cf565b60405180910390f35b34801561008657600080fd5b5061008f610127565b005b34801561009d57600080fd5b506100a66102a1565b6040516100b39190610403565b60405180910390f35b6100c46102d7565b005b3480156100d257600080fd5b506100ed60048036038101906100e8919061044f565b61034f565b6040516100fa91906103cf565b60405180910390f35b60008054906101000a900473ffffffffffffffffffffffffffffffffffffffff1681565b3373ffffffffffffffffffffffffffffffffffffffff1660008054906101000a900473ffffffffffffffffffffffffffffffffffffffff1673ffffffffffffffffffffffffffffffffffffffff16146101b5576040517f08c379a00000000000000000000000000000000000000000000000000000000081526004016101ac906104d9565b60405180910390fd5b6000600180549050116101fd576040517f08c379a00000000000000000000000000000000000000000000000000000000081526004016101f490610545565b60405180910390fd5b600060018054905061020d6102a1565b6102179190610594565b90506001818154811061022d5761022c6105c5565b5b9060005260206000200160009054906101000a900473ffffffffffffffffffffffffffffffffffffffff1673ffffffffffffffffffffffffffffffffffffffff166108fc479081150290604051600060405180830381858888f1935050505015801561029d573d6000803e3d6000fd5b5050565b6000444260016040516020016102b993929190610733565b6040516020818303038152906040528051906020012060001c905090565b662386f26fc1000034116102ea57600080fd5b6001339080600181540180825580915050600190039060005260206000200160009091909190916101000a81548173ffffffffffffffffffffffffffffffffffffffff021916908373ffffffffffffffffffffffffffffffffffffffff160217905550565b6001818154811061035f57600080fd5b906000526020600020016000915054906101000a900473ffffffffffffffffffffffffffffffffffffffff1681565b600073ffffffffffffffffffffffffffffffffffffffff82169050919050565b60006103b98261038e565b9050919050565b6103c9816103ae565b82525050565b60006020820190506103e460008301846103c0565b92915050565b6000819050919050565b6103fd816103ea565b82525050565b600060208201905061041860008301846103f4565b92915050565b600080fd5b61042c816103ea565b811461043757600080fd5b50565b60008135905061044981610423565b92915050565b6000602082840312156104655761046461041e565b5b60006104738482850161043a565b91505092915050565b600082825260208201905092915050565b7f796f7520617265206e6f742061206d616e616765720000000000000000000000600082015250565b60006104c360158361047c565b91506104ce8261048d565b602082019050919050565b600060208201905081810360008301526104f2816104b6565b9050919050565b7f746865726520617265206e6f20706c6179657273000000000000000000000000600082015250565b600061052f60148361047c565b915061053a826104f9565b602082019050919050565b6000602082019050818103600083015261055e81610522565b9050919050565b7f4e487b7100000000000000000000000000000000000000000000000000000000600052601260045260246000fd5b600061059f826103ea565b91506105aa836103ea565b9250826105ba576105b9610565565b5b828206905092915050565b7f4e487b7100000000000000000000000000000000000000000000000000000000600052603260045260246000fd5b6000819050919050565b61060f61060a826103ea565b6105f4565b82525050565b600081549050919050565b600081905092915050565b60008190508160005260206000209050919050565b610649816103ae565b82525050565b600061065b8383610640565b60208301905092915050565b60008160001c9050919050565b600073ffffffffffffffffffffffffffffffffffffffff82169050919050565b60006106a76106a283610667565b610674565b9050919050565b60006106ba8254610694565b9050919050565b6000600182019050919050565b60006106d982610615565b6106e38185610620565b93506106ee8361062b565b8060005b8381101561072657610703826106ae565b61070d888261064f565b9750610718836106c1565b9250506001810190506106f2565b5085935050505092915050565b600061073f82866105fe565b60208201915061074f82856105fe565b60208201915061075f82846106ce565b915081905094935050505056fea26469706673582212203da2e290e98f086031fa38881bcb26e257d54d5694187fc1c7f3ff419dc07d2864736f6c63430008100033",
  "immutableReferences": {},
  "source": "// SPDX-License-Identifier: MIT\r\npragma solidity >=0.4.22 <0.9.0;\r\n\r\ncontract Lottery {\r\n    address public manager;\r\n    address[] public players;\r\n\r\n    constructor() {\r\n        manager = msg.sender;\r\n    }\r\n\r\n    modifier restricted() {\r\n        require(manager == msg.sender, 'you are not a manager');\r\n        _;\r\n    }\r\n\r\n    function enter() public payable {\r\n        require(msg.value > 0.01 ether);\r\n        players.push(msg.sender);\r\n    }\r\n\r\n    function random() public view returns (uint ) {\r\n        return uint(keccak256(abi.encodePacked(block.difficulty, block.timestamp, players)));\r\n    }\r\n\r\n    function pickWinner() public restricted {\r\n        require(players.length > 0, 'there are no players');\r\n        uint index = random() % players.length;\r\n        payable(players[index]).transfer(address(this).balance);\r\n    }\r\n}",
  "sourcePath": "D:\\mub\\selfImprovement\\Blockchain\\2_Etherium and solidity\\Lottery-react\\src\\contracts\\Lottery.sol",
  "compiler": {
    "name": "solc",
    "version": "0.8.16+commit.07a7930e.Emscripten.clang"
  },
  "schemaVersion": "3.4.7",
  "updatedAt": "2022-08-12T00:35:00.588Z",
  "devdoc": {
    "kind": "dev",
    "methods": {},
    "version": 1
  },
  "userdoc": {
    "kind": "user",
    "methods": {},
    "version": 1
  }
}